{
  "contractName": "Casino",
  "abi": [
    {
      "constant": true,
      "inputs": [],
      "name": "LIMIT_AMOUNT_BETS",
      "outputs": [
        {
          "name": "",
          "type": "uint256"
        }
      ],
      "payable": false,
      "stateMutability": "view",
      "type": "function"
    },
    {
      "constant": true,
      "inputs": [],
      "name": "numberOfBets",
      "outputs": [
        {
          "name": "",
          "type": "uint256"
        }
      ],
      "payable": false,
      "stateMutability": "view",
      "type": "function"
    },
    {
      "constant": true,
      "inputs": [],
      "name": "numberWinner",
      "outputs": [
        {
          "name": "",
          "type": "uint256"
        }
      ],
      "payable": false,
      "stateMutability": "view",
      "type": "function"
    },
    {
      "constant": true,
      "inputs": [],
      "name": "minimumBet",
      "outputs": [
        {
          "name": "",
          "type": "uint256"
        }
      ],
      "payable": false,
      "stateMutability": "view",
      "type": "function"
    },
    {
      "constant": true,
      "inputs": [],
      "name": "maxAmountOfBets",
      "outputs": [
        {
          "name": "",
          "type": "uint256"
        }
      ],
      "payable": false,
      "stateMutability": "view",
      "type": "function"
    },
    {
      "constant": true,
      "inputs": [
        {
          "name": "",
          "type": "uint256"
        }
      ],
      "name": "players",
      "outputs": [
        {
          "name": "",
          "type": "address"
        }
      ],
      "payable": false,
      "stateMutability": "view",
      "type": "function"
    },
    {
      "constant": true,
      "inputs": [],
      "name": "totalBet",
      "outputs": [
        {
          "name": "",
          "type": "uint256"
        }
      ],
      "payable": false,
      "stateMutability": "view",
      "type": "function"
    },
    {
      "inputs": [
        {
          "name": "_minimumBet",
          "type": "uint256"
        },
        {
          "name": "_maxAmountOfBets",
          "type": "uint256"
        }
      ],
      "payable": false,
      "stateMutability": "nonpayable",
      "type": "constructor"
    },
    {
      "constant": false,
      "inputs": [
        {
          "name": "player",
          "type": "address"
        }
      ],
      "name": "checkPlayerExists",
      "outputs": [
        {
          "name": "",
          "type": "bool"
        }
      ],
      "payable": false,
      "stateMutability": "nonpayable",
      "type": "function"
    },
    {
      "constant": false,
      "inputs": [
        {
          "name": "numberToBet",
          "type": "uint256"
        }
      ],
      "name": "bet",
      "outputs": [],
      "payable": true,
      "stateMutability": "payable",
      "type": "function"
    },
    {
      "constant": false,
      "inputs": [],
      "name": "generateNumberWinner",
      "outputs": [],
      "payable": true,
      "stateMutability": "payable",
      "type": "function"
    },
    {
      "constant": false,
      "inputs": [
        {
          "name": "myid",
          "type": "bytes32"
        },
        {
          "name": "result",
          "type": "string"
        }
      ],
      "name": "__callback",
      "outputs": [],
      "payable": false,
      "stateMutability": "nonpayable",
      "type": "function"
    },
    {
      "constant": false,
      "inputs": [
        {
          "name": "_queryId",
          "type": "bytes32"
        },
        {
          "name": "_result",
          "type": "string"
        },
        {
          "name": "_proof",
          "type": "bytes"
        }
      ],
      "name": "__callback",
      "outputs": [],
      "payable": false,
      "stateMutability": "nonpayable",
      "type": "function"
    },
    {
      "constant": false,
      "inputs": [],
      "name": "distributePrizes",
      "outputs": [],
      "payable": false,
      "stateMutability": "nonpayable",
      "type": "function"
    }
  ],
  "bytecode": "0x608060405267016345785d8a0000600655600a6009553480156200002257600080fd5b50604051604080620048c1833981018060405281019080805190602001909291908051906020019092919050505033600560006101000a81548173ffffffffffffffffffffffffffffffffffffffff021916908373ffffffffffffffffffffffffffffffffffffffff1602179055506000821115620000a357816006819055505b600081118015620000b5575060648111155b15620000c357806009819055505b6200010060307f01000000000000000000000000000000000000000000000000000000000000000262000108640100000000026401000000009004565b505062000aec565b60008060009054906101000a900473ffffffffffffffffffffffffffffffffffffffff1673ffffffffffffffffffffffffffffffffffffffff1614806200018957506000620001876000809054906101000a900473ffffffffffffffffffffffffffffffffffffffff16620004bc640100000000026401000000009004565b145b15620001ac57620001aa6000620004c7640100000000026401000000009004565b505b6000809054906101000a900473ffffffffffffffffffffffffffffffffffffffff1673ffffffffffffffffffffffffffffffffffffffff166338cc48316040518163ffffffff167c0100000000000000000000000000000000000000000000000000000000028152600401602060405180830381600087803b1580156200023257600080fd5b505af115801562000247573d6000803e3d6000fd5b505050506040513d60208110156200025e57600080fd5b810190808051906020019092919050505073ffffffffffffffffffffffffffffffffffffffff16600160009054906101000a900473ffffffffffffffffffffffffffffffffffffffff1673ffffffffffffffffffffffffffffffffffffffff16141515620003ca576000809054906101000a900473ffffffffffffffffffffffffffffffffffffffff1673ffffffffffffffffffffffffffffffffffffffff166338cc48316040518163ffffffff167c0100000000000000000000000000000000000000000000000000000000028152600401602060405180830381600087803b1580156200034c57600080fd5b505af115801562000361573d6000803e3d6000fd5b505050506040513d60208110156200037857600080fd5b8101908080519060200190929190505050600160006101000a81548173ffffffffffffffffffffffffffffffffffffffff021916908373ffffffffffffffffffffffffffffffffffffffff1602179055505b600160009054906101000a900473ffffffffffffffffffffffffffffffffffffffff1673ffffffffffffffffffffffffffffffffffffffff1663688dcfd7826040518263ffffffff167c010000000000000000000000000000000000000000000000000000000002815260040180827effffffffffffffffffffffffffffffffffffffffffffffffffffffffffffff19167effffffffffffffffffffffffffffffffffffffffffffffffffffffffffffff19168152602001915050600060405180830381600087803b158015620004a057600080fd5b505af1158015620004b5573d6000803e3d6000fd5b5050505050565b6000813b9050919050565b600080620004f8731d3b2638a7cc9f2cb3d298a3da7a90b67e5506ed620004bc640100000000026401000000009004565b1115620005ac57731d3b2638a7cc9f2cb3d298a3da7a90b67e5506ed6000806101000a81548173ffffffffffffffffffffffffffffffffffffffff021916908373ffffffffffffffffffffffffffffffffffffffff160217905550620005a26040805190810160405280600b81526020017f6574685f6d61696e6e657400000000000000000000000000000000000000000081525062000a21640100000000026401000000009004565b6001905062000a1c565b6000620005dc73c03a2615d5efaf5f49f60b7bb6583eaec212fdf1620004bc640100000000026401000000009004565b1115620006905773c03a2615d5efaf5f49f60b7bb6583eaec212fdf16000806101000a81548173ffffffffffffffffffffffffffffffffffffffff021916908373ffffffffffffffffffffffffffffffffffffffff160217905550620006866040805190810160405280600c81526020017f6574685f726f707374656e33000000000000000000000000000000000000000081525062000a21640100000000026401000000009004565b6001905062000a1c565b6000620006c073b7a07bcf2ba2f2703b24c0691b5278999c59ac7e620004bc640100000000026401000000009004565b1115620007745773b7a07bcf2ba2f2703b24c0691b5278999c59ac7e6000806101000a81548173ffffffffffffffffffffffffffffffffffffffff021916908373ffffffffffffffffffffffffffffffffffffffff1602179055506200076a6040805190810160405280600981526020017f6574685f6b6f76616e000000000000000000000000000000000000000000000081525062000a21640100000000026401000000009004565b6001905062000a1c565b6000620007a473146500cfd35b22e4a392fe0adc06de1a1368ed48620004bc640100000000026401000000009004565b1115620008585773146500cfd35b22e4a392fe0adc06de1a1368ed486000806101000a81548173ffffffffffffffffffffffffffffffffffffffff021916908373ffffffffffffffffffffffffffffffffffffffff1602179055506200084e6040805190810160405280600b81526020017f6574685f72696e6b65627900000000000000000000000000000000000000000081525062000a21640100000000026401000000009004565b6001905062000a1c565b600062000888736f485c8bf6fc43ea212e93bbf8ce046c7f1cb475620004bc640100000000026401000000009004565b1115620008ed57736f485c8bf6fc43ea212e93bbf8ce046c7f1cb4756000806101000a81548173ffffffffffffffffffffffffffffffffffffffff021916908373ffffffffffffffffffffffffffffffffffffffff1602179055506001905062000a1c565b60006200091d7320e12a1f859b3feae5fb2a0a32c18f5a65555bbf620004bc640100000000026401000000009004565b111562000982577320e12a1f859b3feae5fb2a0a32c18f5a65555bbf6000806101000a81548173ffffffffffffffffffffffffffffffffffffffff021916908373ffffffffffffffffffffffffffffffffffffffff1602179055506001905062000a1c565b6000620009b27351efaf4c8b3c9afbd5ab9f4bbc82784ab6ef8faa620004bc640100000000026401000000009004565b111562000a17577351efaf4c8b3c9afbd5ab9f4bbc82784ab6ef8faa6000806101000a81548173ffffffffffffffffffffffffffffffffffffffff021916908373ffffffffffffffffffffffffffffffffffffffff1602179055506001905062000a1c565b600090505b919050565b806002908051906020019062000a3992919062000a3d565b5050565b828054600181600116156101000203166002900490600052602060002090601f016020900481019282601f1062000a8057805160ff191683800117855562000ab1565b8280016001018555821562000ab1579182015b8281111562000ab057825182559160200191906001019062000a93565b5b50905062000ac0919062000ac4565b5090565b62000ae991905b8082111562000ae557600081600090555060010162000acb565b5090565b90565b613dc58062000afc6000396000f3006080604052600436106100c5576000357c0100000000000000000000000000000000000000000000000000000000900463ffffffff1680630a50e361146100ca5780631900874b146100d457806327dc297e146100ff5780632ca8c6d31461017657806338bbfa50146101a15780634081d9161461025e5780637365870b146102b95780637ce52eb6146102d95780639a6a68e9146102f0578063c38a8afd1461031b578063e08a96cd14610346578063f71d96cb14610371578063fe5e1853146103de575b600080fd5b6100d2610409565b005b3480156100e057600080fd5b506100e961043e565b6040518082815260200191505060405180910390f35b34801561010b57600080fd5b506101746004803603810190808035600019169060200190929190803590602001908201803590602001908080601f0160208091040260200160405190810160405280939291908181526020018383808284378201915050505050509192919290505050610443565b005b34801561018257600080fd5b5061018b610486565b6040518082815260200191505060405180910390f35b3480156101ad57600080fd5b5061025c6004803603810190808035600019169060200190929190803590602001908201803590602001908080601f0160208091040260200160405190810160405280939291908181526020018383808284378201915050505050509192919290803590602001908201803590602001908080601f016020809104026020016040519081016040528093929190818152602001838380828437820191505050505050919291929050505061048c565b005b34801561026a57600080fd5b5061029f600480360381019080803573ffffffffffffffffffffffffffffffffffffffff169060200190929190505050610789565b604051808215151515815260200191505060405180910390f35b6102d7600480360381019080803590602001909291905050506107e5565b005b3480156102e557600080fd5b506102ee610929565b005b3480156102fc57600080fd5b50610305610a7b565b6040518082815260200191505060405180910390f35b34801561032757600080fd5b50610330610a81565b6040518082815260200191505060405180910390f35b34801561035257600080fd5b5061035b610a87565b6040518082815260200191505060405180910390f35b34801561037d57600080fd5b5061039c60048036038101908080359060200190929190505050610a8d565b604051808273ffffffffffffffffffffffffffffffffffffffff1673ffffffffffffffffffffffffffffffffffffffff16815260200191505060405180910390f35b3480156103ea57600080fd5b506103f3610acb565b6040518082815260200191505060405180910390f35b60008060008060095460085410151561043857600793506000925062030d409150610435838584610ad1565b90505b50505050565b606481565b610482828260006040519080825280601f01601f19166020018201604052801561047c5781602001602082028038833980820191505090505b5061048c565b5050565b60085481565b82828260007f4c000000000000000000000000000000000000000000000000000000000000008260008151811015156104c157fe5b9060200101517f010000000000000000000000000000000000000000000000000000000000000090047f0100000000000000000000000000000000000000000000000000000000000000027effffffffffffffffffffffffffffffffffffffffffffffffffffffffffffff19161415806105d657507f500000000000000000000000000000000000000000000000000000000000000082600181518110151561056657fe5b9060200101517f010000000000000000000000000000000000000000000000000000000000000090047f0100000000000000000000000000000000000000000000000000000000000000027effffffffffffffffffffffffffffffffffffffffffffffffffffffffffffff191614155b8061067f575060017f01000000000000000000000000000000000000000000000000000000000000000282600281518110151561060f57fe5b9060200101517f010000000000000000000000000000000000000000000000000000000000000090047f0100000000000000000000000000000000000000000000000000000000000000027effffffffffffffffffffffffffffffffffffffffffffffffffffffffffffff191614155b1561068957600080fd5b61069c828585610697611094565b611136565b90506000151581151514156106b057600080fd5b600954600854101515610780576106c5611926565b73ffffffffffffffffffffffffffffffffffffffff163373ffffffffffffffffffffffffffffffffffffffff161415156106fb57fe5b6001600a876040518082805190602001908083835b6020831015156107355780518252602082019150602081019050602083039250610710565b6001836020036101000a03801982511681845116808217855250505050505090500191505060405180910390206001900481151561076f57fe5b0601600a8190555061077f610929565b5b50505050505050565b600080600d60008473ffffffffffffffffffffffffffffffffffffffff1673ffffffffffffffffffffffffffffffffffffffff1681526020019081526020016000205411156107db57600190506107e0565b600090505b919050565b6009546008541015156107f457fe5b6000151561080133610789565b151514151561080c57fe5b6001811015801561081e5750600a8111155b151561082657fe5b600654341015151561083457fe5b80600d60003373ffffffffffffffffffffffffffffffffffffffff1673ffffffffffffffffffffffffffffffffffffffff16815260200190815260200160002081905550600c60008281526020019081526020016000203390806001815401808255809150509060018203906000526020600020016000909192909190916101000a81548173ffffffffffffffffffffffffffffffffffffffff021916908373ffffffffffffffffffffffffffffffffffffffff1602179055505060016008600082825401925050819055503460076000828254019250508190555060095460085410151561092657610925610409565b5b50565b6000806000600954600854101515610a7657600c6000600a5481526020019081526020016000208054905060075481151561096057fe5b049250600091505b600c6000600a54815260200190815260200160002080549050821015610a2857600c6000600a548152602001908152602001600020828154811015156109aa57fe5b9060005260206000200160009054906101000a900473ffffffffffffffffffffffffffffffffffffffff1673ffffffffffffffffffffffffffffffffffffffff166108fc849081150290604051600060405180830381858888f19350505050158015610a1a573d6000803e3d6000fd5b508180600101925050610968565b600190505b600a81111515610a65576000600c600083815260200190815260200160002081610a579190613c86565b508080600101915050610a2d565b600060078190555060006008819055505b505050565b600a5481565b60065481565b60095481565b600b81815481101515610a9c57fe5b906000526020600020016000915054906101000a900473ffffffffffffffffffffffffffffffffffffffff1681565b60075481565b600060608060606000606080610ae5613cb2565b6000606060008c1480610af8575060208c115b15610b0257600080fd5b600a8d029c5060016040519080825280601f01601f191660200182016040528015610b3c5781602001602082028038833980820191505090505b5098508b7f010000000000000000000000000000000000000000000000000000000000000002896000815181101515610b7157fe5b9060200101907effffffffffffffffffffffffffffffffffffffffffffffffffffffffffffff1916908160001a90535060206040519080825280601f01601f191660200182016040528015610bd55781602001602082028038833980820191505090505b50975060206040519080825280601f01601f191660200182016040528015610c0c5781602001602082028038833980820191505090505b509650610c17611c84565b95506020885242411860014303401860208901526020875285602088015260206040519080825280601f01601f191660200182016040528015610c695781602001602082028038833980820191505090505b5094508c602086015260086040519080825280601f01601f191660200182016040528015610ca65781602001602082028038833980820191505090505b509350610cb98560186008876000611fe2565b506080604051908101604052808981526020018a8152602001888152602001868152509250610d1e6040805190810160405280600681526020017f72616e646f6d0000000000000000000000000000000000000000000000000000815250848d612040565b915060086040519080825280601f01601f191660200182016040528015610d545781602001602082028038833980820191505090505b50905060208401517f0100000000000000000000000000000000000000000000000000000000000000810460278301537e01000000000000000000000000000000000000000000000000000000000000810460268301537d010000000000000000000000000000000000000000000000000000000000810460258301537c0100000000000000000000000000000000000000000000000000000000810460248301537b01000000000000000000000000000000000000000000000000000000810460238301537a0100000000000000000000000000000000000000000000000000008104602283015379010000000000000000000000000000000000000000000000000081046021830153780100000000000000000000000000000000000000000000000081046020830153506110818282856001600481101515610e9557fe5b60200201516002876000600481101515610eab57fe5b60200201516040518082805190602001908083835b602083101515610ee55780518252602082019150602081019050602083039250610ec0565b6001836020036101000a0380198251168184511680821785525050505050509050019150506020604051808303816000865af1158015610f29573d6000803e3d6000fd5b5050506040513d6020811015610f3e57600080fd5b8101908080519060200190929190505050876002600481101515610f5e57fe5b60200201516040518085805190602001908083835b602083101515610f985780518252602082019150602081019050602083039250610f73565b6001836020036101000a03801982511681845116808217855250505050505090500184805190602001908083835b602083101515610feb5780518252602082019150602081019050602083039250610fc6565b6001836020036101000a038019825116818451168082178552505050505050905001836000191660001916815260200182805190602001908083835b60208310151561104c5780518252602082019150602081019050602083039250611027565b6001836020036101000a03801982511681845116808217855250505050505090500194505050505060405180910390206123e8565b8199505050505050505050509392505050565b606060028054600181600116156101000203166002900480601f01602080910402602001604051908101604052809291908181526020018280546001816001161561010002031660029004801561112c5780601f106111015761010080835404028352916020019161112c565b820191906000526020600020905b81548152906001019060200180831161110f57829003601f168201915b5050505050905090565b6000806060806060806000806060602060028e604581518110151561115757fe5b9060200101517f010000000000000000000000000000000000000000000000000000000000000090047f0100000000000000000000000000000000000000000000000000000000000000027f010000000000000000000000000000000000000000000000000000000000000090040160440101975060206040519080825280601f01601f1916602001820160405280156112005781602001602082028038833980820191505090505b5096506112128d8960208a6000611fe2565b5060028a8d6040518083805190602001908083835b60208310151561124c5780518252602082019150602081019050602083039250611227565b6001836020036101000a0380198251168184511680821785525050505050509050018260001916600019168152602001925050506020604051808303816000865af115801561129f573d6000803e3d6000fd5b5050506040513d60208110156112b457600080fd5b8101908080519060200190929190505050604051808260001916600019168152602001915050604051809103902060001916876040518082805190602001908083835b60208310151561131c57805182526020820191506020810190506020830392506112f7565b6001836020036101000a03801982511681845116808217855250505050505090500191505060405180910390206000191614151561135d5760009850611916565b60028d600160498b010181518110151561137357fe5b9060200101517f010000000000000000000000000000000000000000000000000000000000000090047f0100000000000000000000000000000000000000000000000000000000000000027f01000000000000000000000000000000000000000000000000000000000000009004016040519080825280601f01601f1916602001820160405280156114145781602001602082028038833980820191505090505b5095506114298d60498a018851896000611fe2565b506115576002876040518082805190602001908083835b6020831015156114655780518252602082019150602081019050602083039250611440565b6001836020036101000a0380198251168184511680821785525050505050509050019150506020604051808303816000865af11580156114a9573d6000803e3d6000fd5b5050506040513d60208110156114be57600080fd5b81019080805190602001909291905050508c8f600860208d01018151811015156114e457fe5b9060200101517f010000000000000000000000000000000000000000000000000000000000000090047f0100000000000000000000000000000000000000000000000000000000000000027f01000000000000000000000000000000000000000000000000000000000000009004612410565b15156115665760009850611916565b60296040519080825280601f01601f19166020018201604052801561159a5781602001602082028038833980820191505090505b5094506115af8d60208a016029886000611fe2565b50604080519080825280601f01601f1916602001820160405280156115e35781602001602082028038833980820191505090505b50935060418651602960208b0101010192506116078d604085036040876000611fe2565b506002846040518082805190602001908083835b602083101515611640578051825260208201915060208101905060208303925061161b565b6001836020036101000a0380198251168184511680821785525050505050509050019150506020604051808303816000865af1158015611684573d6000803e3d6000fd5b5050506040513d602081101561169957600080fd5b8101908080519060200190929190505050915084826040518083805190602001908083835b6020831015156116e357805182526020820191506020810190506020830392506116be565b6001836020036101000a038019825116818451168082178552505050505050905001826000191660001916815260200192505050604051809103902060001916600360008e600019166000191681526020019081526020016000205460001916141561176d57600360008d6000191660001916815260200190815260200160002060009055611776565b60009850611916565b60496040519080825280601f01601f1916602001820160405280156117aa5781602001602082028038833980820191505090505b5090506117bc8d896049846000611fe2565b506118696002826040518082805190602001908083835b6020831015156117f857805182526020820191506020810190506020830392506117d3565b6001836020036101000a0380198251168184511680821785525050505050509050019150506020604051808303816000865af115801561183c573d6000803e3d6000fd5b5050506040513d602081101561185157600080fd5b81019080805190602001909291905050508786612528565b15156118785760009850611916565b6000151560046000846000191660001916815260200190815260200160002060009054906101000a900460ff16151514156118ea576118b78d84612855565b60046000846000191660001916815260200190815260200160002060006101000a81548160ff0219169083151502179055505b60046000836000191660001916815260200190815260200160002060009054906101000a900460ff1698505b5050505050505050949350505050565b6000806000809054906101000a900473ffffffffffffffffffffffffffffffffffffffff1673ffffffffffffffffffffffffffffffffffffffff161480611996575060006119946000809054906101000a900473ffffffffffffffffffffffffffffffffffffffff16612dbb565b145b156119a7576119a56000612dc6565b505b6000809054906101000a900473ffffffffffffffffffffffffffffffffffffffff1673ffffffffffffffffffffffffffffffffffffffff166338cc48316040518163ffffffff167c0100000000000000000000000000000000000000000000000000000000028152600401602060405180830381600087803b158015611a2c57600080fd5b505af1158015611a40573d6000803e3d6000fd5b505050506040513d6020811015611a5657600080fd5b810190808051906020019092919050505073ffffffffffffffffffffffffffffffffffffffff16600160009054906101000a900473ffffffffffffffffffffffffffffffffffffffff1673ffffffffffffffffffffffffffffffffffffffff16141515611bbe576000809054906101000a900473ffffffffffffffffffffffffffffffffffffffff1673ffffffffffffffffffffffffffffffffffffffff166338cc48316040518163ffffffff167c0100000000000000000000000000000000000000000000000000000000028152600401602060405180830381600087803b158015611b4257600080fd5b505af1158015611b56573d6000803e3d6000fd5b505050506040513d6020811015611b6c57600080fd5b8101908080519060200190929190505050600160006101000a81548173ffffffffffffffffffffffffffffffffffffffff021916908373ffffffffffffffffffffffffffffffffffffffff1602179055505b600160009054906101000a900473ffffffffffffffffffffffffffffffffffffffff1673ffffffffffffffffffffffffffffffffffffffff1663c281d19e6040518163ffffffff167c0100000000000000000000000000000000000000000000000000000000028152600401602060405180830381600087803b158015611c4457600080fd5b505af1158015611c58573d6000803e3d6000fd5b505050506040513d6020811015611c6e57600080fd5b8101908080519060200190929190505050905090565b6000806000809054906101000a900473ffffffffffffffffffffffffffffffffffffffff1673ffffffffffffffffffffffffffffffffffffffff161480611cf457506000611cf26000809054906101000a900473ffffffffffffffffffffffffffffffffffffffff16612dbb565b145b15611d0557611d036000612dc6565b505b6000809054906101000a900473ffffffffffffffffffffffffffffffffffffffff1673ffffffffffffffffffffffffffffffffffffffff166338cc48316040518163ffffffff167c0100000000000000000000000000000000000000000000000000000000028152600401602060405180830381600087803b158015611d8a57600080fd5b505af1158015611d9e573d6000803e3d6000fd5b505050506040513d6020811015611db457600080fd5b810190808051906020019092919050505073ffffffffffffffffffffffffffffffffffffffff16600160009054906101000a900473ffffffffffffffffffffffffffffffffffffffff1673ffffffffffffffffffffffffffffffffffffffff16141515611f1c576000809054906101000a900473ffffffffffffffffffffffffffffffffffffffff1673ffffffffffffffffffffffffffffffffffffffff166338cc48316040518163ffffffff167c0100000000000000000000000000000000000000000000000000000000028152600401602060405180830381600087803b158015611ea057600080fd5b505af1158015611eb4573d6000803e3d6000fd5b505050506040513d6020811015611eca57600080fd5b8101908080519060200190929190505050600160006101000a81548173ffffffffffffffffffffffffffffffffffffffff021916908373ffffffffffffffffffffffffffffffffffffffff1602179055505b600160009054906101000a900473ffffffffffffffffffffffffffffffffffffffff1673ffffffffffffffffffffffffffffffffffffffff1663abaa5f3e6040518163ffffffff167c0100000000000000000000000000000000000000000000000000000000028152600401602060405180830381600087803b158015611fa257600080fd5b505af1158015611fb6573d6000803e3d6000fd5b505050506040513d6020811015611fcc57600080fd5b8101908080519060200190929190505050905090565b6060600080600084870192508286511015611ffc57600080fd5b8760200191508460200190505b8688602001018210156120315781890151808288015250602082019150602081019050612009565b85935050505095945050505050565b6000606060008060009054906101000a900473ffffffffffffffffffffffffffffffffffffffff1673ffffffffffffffffffffffffffffffffffffffff1614806120b3575060006120b16000809054906101000a900473ffffffffffffffffffffffffffffffffffffffff16612dbb565b145b156120c4576120c26000612dc6565b505b6000809054906101000a900473ffffffffffffffffffffffffffffffffffffffff1673ffffffffffffffffffffffffffffffffffffffff166338cc48316040518163ffffffff167c0100000000000000000000000000000000000000000000000000000000028152600401602060405180830381600087803b15801561214957600080fd5b505af115801561215d573d6000803e3d6000fd5b505050506040513d602081101561217357600080fd5b810190808051906020019092919050505073ffffffffffffffffffffffffffffffffffffffff16600160009054906101000a900473ffffffffffffffffffffffffffffffffffffffff1673ffffffffffffffffffffffffffffffffffffffff161415156122db576000809054906101000a900473ffffffffffffffffffffffffffffffffffffffff1673ffffffffffffffffffffffffffffffffffffffff166338cc48316040518163ffffffff167c0100000000000000000000000000000000000000000000000000000000028152600401602060405180830381600087803b15801561225f57600080fd5b505af1158015612273573d6000803e3d6000fd5b505050506040513d602081101561228957600080fd5b8101908080519060200190929190505050600160006101000a81548173ffffffffffffffffffffffffffffffffffffffff021916908373ffffffffffffffffffffffffffffffffffffffff1602179055505b600460405190808252806020026020018201604052801561231057816020015b60608152602001906001900390816122fb5790505b50905083600060048110151561232257fe5b602002015181600081518110151561233657fe5b9060200190602002018190525083600160048110151561235257fe5b602002015181600181518110151561236657fe5b9060200190602002018190525083600260048110151561238257fe5b602002015181600281518110151561239657fe5b906020019060200201819052508360036004811015156123b257fe5b60200201518160038151811015156123c657fe5b906020019060200201819052506123de858285613257565b9150509392505050565b8060036000846000191660001916815260200190815260200160002081600019169055505050565b60008060006001915083855114151561242857600080fd5b600090505b8381101561251c57848181518110151561244357fe5b9060200101517f010000000000000000000000000000000000000000000000000000000000000090047f0100000000000000000000000000000000000000000000000000000000000000027effffffffffffffffffffffffffffffffffffffffffffffffffffffffffffff191686826020811015156124be57fe5b1a7f0100000000000000000000000000000000000000000000000000000000000000027effffffffffffffffffffffffffffffffffffffffffffffffffffffffffffff191614151561250f57600091505b808060010191505061242d565b81925050509392505050565b600080600080600060606000606060206040519080825280601f01601f19166020018201604052801561256a5781602001602082028038833980820191505090505b50925060208a600381518110151561257e57fe5b9060200101517f010000000000000000000000000000000000000000000000000000000000000090047f0100000000000000000000000000000000000000000000000000000000000000027f010000000000000000000000000000000000000000000000000000000000000090040360040191506126018a836020866000611fe2565b925060206040519080825280601f01601f1916602001820160405280156126375781602001602082028038833980820191505090505b5090506022820191506126d28a60208c6001860381518110151561265757fe5b9060200101517f010000000000000000000000000000000000000000000000000000000000000090047f0100000000000000000000000000000000000000000000000000000000000000027f010000000000000000000000000000000000000000000000000000000000000090040384016020846000611fe2565b905060208301519450602081015193506126ef8b601b8787613815565b80975081985050508573ffffffffffffffffffffffffffffffffffffffff16896040518082805190602001908083835b602083101515612744578051825260208201915060208101905060208303925061271f565b6001836020036101000a03801982511681845116808217855250505050505090500191505060405180910390206001900473ffffffffffffffffffffffffffffffffffffffff16141561279a5760019750612847565b6127a78b601c8787613815565b80975081985050508573ffffffffffffffffffffffffffffffffffffffff16896040518082805190602001908083835b6020831015156127fc57805182526020820191506020810190506020830392506127d7565b6001836020036101000a03801982511681845116808217855250505050505090500191505060405180910390206001900473ffffffffffffffffffffffffffffffffffffffff161497505b505050505050509392505050565b600080606080606080606080606060028b60018c0181518110151561287657fe5b9060200101517f010000000000000000000000000000000000000000000000000000000000000090047f0100000000000000000000000000000000000000000000000000000000000000027f01000000000000000000000000000000000000000000000000000000000000009004016040519080825280601f01601f1916602001820160405280156129175781602001602082028038833980820191505090505b5096506129298b8b89518a6000611fe2565b50604080519080825280601f01601f19166020018201604052801561295d5781602001602082028038833980820191505090505b5095506129708b60046040896000611fe2565b5060626040519080825280601f01601f1916602001820160405280156129a55781602001602082028038833980820191505090505b50945060017f0100000000000000000000000000000000000000000000000000000000000000028560008151811015156129db57fe5b9060200101907effffffffffffffffffffffffffffffffffffffffffffffffffffffffffffff1916908160001a905350612a1d8b60418c036041886001611fe2565b506040805190810160405280602081526020017ffd94fa71bc0ba10d39d464d0d8f465efeef0a2764e3887fcc9df41ded20f505c8152509350612a668460006020886042611fe2565b50612b136002866040518082805190602001908083835b602083101515612aa25780518252602082019150602081019050602083039250612a7d565b6001836020036101000a0380198251168184511680821785525050505050509050019150506020604051808303816000865af1158015612ae6573d6000803e3d6000fd5b5050506040513d6020811015612afb57600080fd5b81019080805190602001909291905050508888612528565b9750600015158815151415612b2b5760009850612dad565b606060405190810160405280604081526020017f7fb956469c5c9b89840d55b43537e66a98dd4811ea0a27224272c2e5622911e881526020017f537a2f8e86a46baec82864e98dd01e9ccc2f8bc5dfc9cbe5a91a290498dd96e4815250925060426040519080825280601f01601f191660200182016040528015612bbe5781602001602082028038833980820191505090505b50915060fe7f010000000000000000000000000000000000000000000000000000000000000002826000815181101515612bf457fe5b9060200101907effffffffffffffffffffffffffffffffffffffffffffffffffffffffffffff1916908160001a905350612c348b60036041856001611fe2565b5060028b6045815181101515612c4657fe5b9060200101517f010000000000000000000000000000000000000000000000000000000000000090047f0100000000000000000000000000000000000000000000000000000000000000027f01000000000000000000000000000000000000000000000000000000000000009004016040519080825280601f01601f191660200182016040528015612ce75781602001602082028038833980820191505090505b509050612cfa8b60448351846000611fe2565b50612da76002836040518082805190602001908083835b602083101515612d365780518252602082019150602081019050602083039250612d11565b6001836020036101000a0380198251168184511680821785525050505050509050019150506020604051808303816000865af1158015612d7a573d6000803e3d6000fd5b5050506040513d6020811015612d8f57600080fd5b81019080805190602001909291905050508285612528565b97508798505b505050505050505092915050565b6000813b9050919050565b600080612de6731d3b2638a7cc9f2cb3d298a3da7a90b67e5506ed612dbb565b1115612e8757731d3b2638a7cc9f2cb3d298a3da7a90b67e5506ed6000806101000a81548173ffffffffffffffffffffffffffffffffffffffff021916908373ffffffffffffffffffffffffffffffffffffffff160217905550612e7e6040805190810160405280600b81526020017f6574685f6d61696e6e6574000000000000000000000000000000000000000000815250613859565b60019050613252565b6000612ea673c03a2615d5efaf5f49f60b7bb6583eaec212fdf1612dbb565b1115612f475773c03a2615d5efaf5f49f60b7bb6583eaec212fdf16000806101000a81548173ffffffffffffffffffffffffffffffffffffffff021916908373ffffffffffffffffffffffffffffffffffffffff160217905550612f3e6040805190810160405280600c81526020017f6574685f726f707374656e330000000000000000000000000000000000000000815250613859565b60019050613252565b6000612f6673b7a07bcf2ba2f2703b24c0691b5278999c59ac7e612dbb565b11156130075773b7a07bcf2ba2f2703b24c0691b5278999c59ac7e6000806101000a81548173ffffffffffffffffffffffffffffffffffffffff021916908373ffffffffffffffffffffffffffffffffffffffff160217905550612ffe6040805190810160405280600981526020017f6574685f6b6f76616e0000000000000000000000000000000000000000000000815250613859565b60019050613252565b600061302673146500cfd35b22e4a392fe0adc06de1a1368ed48612dbb565b11156130c75773146500cfd35b22e4a392fe0adc06de1a1368ed486000806101000a81548173ffffffffffffffffffffffffffffffffffffffff021916908373ffffffffffffffffffffffffffffffffffffffff1602179055506130be6040805190810160405280600b81526020017f6574685f72696e6b656279000000000000000000000000000000000000000000815250613859565b60019050613252565b60006130e6736f485c8bf6fc43ea212e93bbf8ce046c7f1cb475612dbb565b111561314957736f485c8bf6fc43ea212e93bbf8ce046c7f1cb4756000806101000a81548173ffffffffffffffffffffffffffffffffffffffff021916908373ffffffffffffffffffffffffffffffffffffffff16021790555060019050613252565b60006131687320e12a1f859b3feae5fb2a0a32c18f5a65555bbf612dbb565b11156131cb577320e12a1f859b3feae5fb2a0a32c18f5a65555bbf6000806101000a81548173ffffffffffffffffffffffffffffffffffffffff021916908373ffffffffffffffffffffffffffffffffffffffff16021790555060019050613252565b60006131ea7351efaf4c8b3c9afbd5ab9f4bbc82784ab6ef8faa612dbb565b111561324d577351efaf4c8b3c9afbd5ab9f4bbc82784ab6ef8faa6000806101000a81548173ffffffffffffffffffffffffffffffffffffffff021916908373ffffffffffffffffffffffffffffffffffffffff16021790555060019050613252565b600090505b919050565b600080606060008060009054906101000a900473ffffffffffffffffffffffffffffffffffffffff1673ffffffffffffffffffffffffffffffffffffffff1614806132cb575060006132c96000809054906101000a900473ffffffffffffffffffffffffffffffffffffffff16612dbb565b145b156132dc576132da6000612dc6565b505b6000809054906101000a900473ffffffffffffffffffffffffffffffffffffffff1673ffffffffffffffffffffffffffffffffffffffff166338cc48316040518163ffffffff167c0100000000000000000000000000000000000000000000000000000000028152600401602060405180830381600087803b15801561336157600080fd5b505af1158015613375573d6000803e3d6000fd5b505050506040513d602081101561338b57600080fd5b810190808051906020019092919050505073ffffffffffffffffffffffffffffffffffffffff16600160009054906101000a900473ffffffffffffffffffffffffffffffffffffffff1673ffffffffffffffffffffffffffffffffffffffff161415156134f3576000809054906101000a900473ffffffffffffffffffffffffffffffffffffffff1673ffffffffffffffffffffffffffffffffffffffff166338cc48316040518163ffffffff167c0100000000000000000000000000000000000000000000000000000000028152600401602060405180830381600087803b15801561347757600080fd5b505af115801561348b573d6000803e3d6000fd5b505050506040513d60208110156134a157600080fd5b8101908080519060200190929190505050600160006101000a81548173ffffffffffffffffffffffffffffffffffffffff021916908373ffffffffffffffffffffffffffffffffffffffff1602179055505b600160009054906101000a900473ffffffffffffffffffffffffffffffffffffffff1673ffffffffffffffffffffffffffffffffffffffff16632ef3accc87866040518363ffffffff167c01000000000000000000000000000000000000000000000000000000000281526004018080602001838152602001828103825284818151815260200191508051906020019080838360005b838110156135a4578082015181840152602081019050613589565b50505050905090810190601f1680156135d15780820380516001836020036101000a031916815260200191505b509350505050602060405180830381600087803b1580156135f157600080fd5b505af1158015613605573d6000803e3d6000fd5b505050506040513d602081101561361b57600080fd5b81019080805190602001909291905050509150833a02670de0b6b3a76400000182111561364e576000600102925061380c565b61365785613873565b9050600160009054906101000a900473ffffffffffffffffffffffffffffffffffffffff1673ffffffffffffffffffffffffffffffffffffffff1663c55c1cb68360008985896040518663ffffffff167c0100000000000000000000000000000000000000000000000000000000028152600401808581526020018060200180602001848152602001838103835286818151815260200191508051906020019080838360005b838110156137185780820151818401526020810190506136fd565b50505050905090810190601f1680156137455780820380516001836020036101000a031916815260200191505b50838103825285818151815260200191508051906020019080838360005b8381101561377e578082015181840152602081019050613763565b50505050905090810190601f1680156137ab5780820380516001836020036101000a031916815260200191505b5096505050505050506020604051808303818588803b1580156137cd57600080fd5b505af11580156137e1573d6000803e3d6000fd5b50505050506040513d60208110156137f857600080fd5b810190808051906020019092919050505092505b50509392505050565b60008060008060405188815287602082015286604082015285606082015260208160808360006001610bb8f192508051915050818193509350505094509492505050565b806002908051906020019061386f929190613cda565b5050565b606061387d613d5a565b600061388b826104006138f0565b61389482613936565b600090505b83518110156138d9576138cc84828151811015156138b357fe5b906020019060200201518361394490919063ffffffff16565b8080600101915050613899565b6138e282613969565b816000015192505050919050565b60006020828115156138fe57fe5b0614151561391b5760208181151561391257fe5b06602003810190505b80826020018181525050604051808352818101604052505050565b613941816004613977565b50565b613951826002835161399b565b6139648183613af490919063ffffffff16565b505050565b613974816007613977565b50565b613997601f60058360ff169060020a021783613ba090919063ffffffff16565b5050565b6017811115156139cc576139c78160058460ff169060020a0260ff161784613ba090919063ffffffff16565b613aef565b60ff81111515613a12576139f6601860058460ff169060020a021784613ba090919063ffffffff16565b613a0c81600185613be09092919063ffffffff16565b50613aee565b61ffff81111515613a5957613a3d601960058460ff169060020a021784613ba090919063ffffffff16565b613a5381600285613be09092919063ffffffff16565b50613aed565b63ffffffff81111515613aa257613a86601a60058460ff169060020a021784613ba090919063ffffffff16565b613a9c81600485613be09092919063ffffffff16565b50613aec565b67ffffffffffffffff81111515613aeb57613ad3601b60058460ff169060020a021784613ba090919063ffffffff16565b613ae981600885613be09092919063ffffffff16565b505b5b5b5b5b505050565b613afc613d5a565b60008060008086602001518760000151518751011115613b3257613b31876002613b2b8a602001518a51613c47565b02613c63565b5b8551915086518051602081830101955087518101825260208801945050505b602082101515613b765782518452602084019350602083019250602082039150613b51565b6001826020036101000a039050801983511681855116818117865250508694505050505092915050565b81602001516001836000015151011115613bc657613bc5826002846020015102613c63565b5b815180516020818301018381536001820183525050505050565b613be8613d5a565b6000846020015185600001515184011115613c1857613c17856002613c11886020015187613c47565b02613c63565b5b6001836101000a0390508451805184818301018684198251161781528582018352505050849150509392505050565b600081831115613c5957829050613c5d565b8190505b92915050565b606082600001519050613c7683836138f0565b613c808382613af4565b50505050565b815481835581811115613cad57818360005260206000209182019101613cac9190613d74565b5b505050565b6080604051908101604052806004905b6060815260200190600190039081613cc25790505090565b828054600181600116156101000203166002900490600052602060002090601f016020900481019282601f10613d1b57805160ff1916838001178555613d49565b82800160010185558215613d49579182015b82811115613d48578251825591602001919060010190613d2d565b5b509050613d569190613d74565b5090565b604080519081016040528060608152602001600081525090565b613d9691905b80821115613d92576000816000905550600101613d7a565b5090565b905600a165627a7a7230582045cce855ae4cb3e4e5701f2e063af97b8134d210a14945b0d69fd295ee9647c60029",
  "source": "pragma solidity ^0.4.20;\n\nimport \"./oraclizeAPI_0.4.sol\";\n\n/// @title Contract to bet Ether for a number and win randomly when the number of bets is met.\n/// @author Merunas Grincalaitis\ncontract Casino is usingOraclize {\n   address owner;\n\n   // The minimum bet a user has to make to participate in the game\n   uint public minimumBet = 100 finney; // Equal to 0.1 ether\n\n   // The total amount of Ether bet for this current game\n   uint public totalBet;\n\n   // The total number of bets the users have made\n   uint public numberOfBets;\n\n   // The maximum amount of bets can be made for each game\n   uint public maxAmountOfBets = 10;\n\n   // The max amount of bets that cannot be exceeded to avoid excessive gas consumption\n   // when distributing the prizes and restarting the game\n   uint public constant LIMIT_AMOUNT_BETS = 100;\n\n   // The number that won the last game\n   uint public numberWinner;\n\n   // Array of players\n   address[] public players;\n\n   // Each number has an array of players. Associate each number with a bunch of players\n   mapping(uint => address[]) numberBetPlayers;\n\n   // The number that each player has bet for\n   mapping(address => uint) playerBetsNumber;\n\n   // Modifier to only allow the execution of functions when the bets are completed\n   modifier onEndGame(){\n      if(numberOfBets >= maxAmountOfBets) _;\n   }\n\n   /// @notice Constructor that's used to configure the minimum bet per game and the max amount of bets\n   /// @param _minimumBet The minimum bet that each user has to make in order to participate in the game\n   /// @param _maxAmountOfBets The max amount of bets that are required for each game\n   function Casino(uint _minimumBet, uint _maxAmountOfBets){\n      owner = msg.sender;\n\n      if(_minimumBet > 0) minimumBet = _minimumBet;\n      if(_maxAmountOfBets > 0 && _maxAmountOfBets <= LIMIT_AMOUNT_BETS)\n         maxAmountOfBets = _maxAmountOfBets;\n\n      // Set the proof of oraclize in order to make secure random number generations\n      oraclize_setProof(proofType_Ledger);\n   }\n\n   /// @notice Check if a player exists in the current game\n   /// @param player The address of the player to check\n   /// @return bool Returns true is it exists or false if it doesn't\n   function checkPlayerExists(address player) returns(bool){\n      if(playerBetsNumber[player] > 0)\n         return true;\n      else\n         return false;\n   }\n\n   /// @notice To bet for a number by sending Ether\n   /// @param numberToBet The number that the player wants to bet for. Must be between 1 and 10 both inclusive\n   function bet(uint numberToBet) payable{\n\n      // Check that the max amount of bets hasn't been met yet\n      assert(numberOfBets < maxAmountOfBets);\n\n      // Check that the player doesn't exists\n      assert(checkPlayerExists(msg.sender) == false);\n\n      // Check that the number to bet is within the range\n      assert(numberToBet >= 1 && numberToBet <= 10);\n\n      // Check that the amount paid is bigger or equal the minimum bet\n      assert(msg.value >= minimumBet);\n\n      // Set the number bet for that player\n      playerBetsNumber[msg.sender] = numberToBet;\n\n      // The player msg.sender has bet for that number\n      numberBetPlayers[numberToBet].push(msg.sender);\n\n      numberOfBets += 1;\n      totalBet += msg.value;\n\n      if(numberOfBets >= maxAmountOfBets) generateNumberWinner();\n   }\n\n   /// @notice Generates a random number between 1 and 10 both inclusive.\n   /// Must be payable because oraclize needs gas to generate a random number.\n   /// Can only be executed when the game ends.\n   function generateNumberWinner() payable onEndGame {\n      uint numberRandomBytes = 7;\n      uint delay = 0;\n      uint callbackGas = 200000;\n\n      bytes32 queryId = oraclize_newRandomDSQuery(delay, numberRandomBytes, callbackGas);\n   }\n\n   /// @notice Callback function that gets called by oraclize when the random number is generated\n   /// @param _queryId The query id that was generated to proofVerify\n   /// @param _result String that contains the number generated\n   /// @param _proof A string with a proof code to verify the authenticity of the number generation\n   function __callback(\n      bytes32 _queryId,\n      string _result,\n      bytes _proof\n   ) oraclize_randomDS_proofVerify(_queryId, _result, _proof) onEndGame {\n\n      // Checks that the sender of this callback was in fact oraclize\n      assert(msg.sender == oraclize_cbAddress());\n\n      numberWinner = (uint(sha3(_result))%10+1);\n      distributePrizes();\n   }\n\n   /// @notice Sends the corresponding Ether to each winner then deletes all the\n   /// players for the next game and resets the `totalBet` and `numberOfBets`\n   function distributePrizes() onEndGame {\n      uint winnerEtherAmount = totalBet / numberBetPlayers[numberWinner].length; // How much each winner gets\n\n      // Loop through all the winners to send the corresponding prize for each one\n      for(uint i = 0; i < numberBetPlayers[numberWinner].length; i++){\n         numberBetPlayers[numberWinner][i].transfer(winnerEtherAmount);\n      }\n\n      // Delete all the players for each number\n      for(uint j = 1; j <= 10; j++){\n         numberBetPlayers[j].length = 0;\n      }\n\n      totalBet = 0;\n      numberOfBets = 0;\n   }\n}\n",
  "sourcePath": "/Users/shintaronakajima/dev/casino-ether/contracts/Casino.sol",
  "compiler": {
    "name": "solc",
    "version": "0.4.23+commit.124ca40d.Emscripten.clang"
  },
  "schemaVersion": "2.0.0",
  "updatedAt": "2018-04-22T03:46:28.550Z"
}